:0600000012C0FECFFDCF8F
:10000600FCCFFBCFFACFF9CFF8CFF7CFF6CFF5CFAE
:10001600F4CFF3CFF2CFF1CFF0CFEFCFEECFEDCFDE
:10002600F894EE27ECBBF1E0FBBFEBBFE5BF8DE03C
:10003600A2E0BB27ED938A95E9F780E094E0A0E67D
:10004600ED930197E9F7EFE5EDBFE4E0EEBFC0E61B
:10005600D1E000C000E010E0E1E0E2BBE0E0E1BB9F
:10006600E5BBE4BBE8BBEFE3E7BBC69898990CC0D9
:100076000F5F1F4F0630E0E01E0714F000E010E0AF
:1000860087D0ACEDB5E0EAD08AD0F801309729F4F4
:100096007FD08CD084D08AD079C0E130A0E0FA0736
:1000A600C9F487D0C09889D08ED093D098D09DD0EF
:1000B600A0D0C59AC4989DD0C49AC3989AD0C39A22
:1000C600C29897D0C29AC19894D0C19AC09891D03C
:1000D60070D05CC0E230A0E0FA0751F486D0C59833
:1000E6007ED077D070D069D064D0C09882D04EC010
:1000F600E330A0E0FA0799F45CD0C19A7AD0C29AAC
:1001060078D0C098C39A75D0C198C49A72D0C29854
:100116006CD0C3986ED0C4986CD06ED037C0E43023
:10012600A0E0FA0719F46AD06FD030C0E530A0E03D
:10013600FA0749F5C09AC19A5CD0C098C19843D0D5
:1001460048D04DD052D058D04AD043D03CD035D0EC
:1001560030D0C09AC19A4DD0C098C19834D039D009
:100166003ED043D049D03BD034D02DD026D021D05C
:1001760051D0ACE2B1E072D04DD0ACE2B1E06ED07D
:100186003DD042D003C0C09A11D0C0986ECFFFCFE9
:10019600C09AC19AC29AC39AC49AC59A0895C09839
:1001A600C198C298C398C498C5980895A4EFB1E0C1
:1001B60055C0C09AA4E6B0E051C0C19AA4E6B0E02A
:1001C6004DD0C1980895C29AA4E6B0E047D0C2982F
:1001D6000895C39AA4E6B0E041D0C3980895C49A9E
:1001E600A4E6B0E03BD0C4980895C59AA4E6B0E072
:1001F60035C0A4E6B0E032C0C598FBCFC09AC1981E
:10020600C29AC398C49AF8CFC098C19AC298C39AA2
:10021600C498EBCFC09AC19AACE2B1E01FD0C098A7
:10022600C198C29AC39AACE2B1E018D0C298C398FA
:10023600C49AC59AACE2B1E011D0C498C598C39AE5
:10024600C29AACE2B1E00AD0C398C298C19AC09AE9
:10025600ACE2B1E003D0C198C0980895109639F089
:1002660088EE93E00197F1F7A8951197C9F70895DD
:00000001FF
