:0E00000012C0FECFFDCFFCCFFBCFFACFF9CF61
:10000E00F8CFF7CFF6CFF5CFF4CFF3CFF2CFF1CFC6
:10001E00F0CFEFCFEECFEDCFF894EE27ECBBF1E0C3
:10002E00FBBFEBBFE5BF8DE0A2E0BB27ED938A954A
:10003E00E9F780E094E0A0E6ED930197E9F7EFE5AC
:10004E00EDBFE4E0EEBFC0E6D1E000C000E010E09E
:10005E00E1E0E2BBE0E0E1BBE5BBE4BBE8BBEFE324
:10006E00E7BB989B02C0C69801C0C69AC09AC098BA
:10007E00A4E6B0E003D0C098F4CFFFCF109639F0CD
:10008E0088EE93E00197F1F7A8951197C9F70895B7
:00000001FF
