:0E00000012C0FECFFDCFFCCFFBCFFACFF9CF61
:10000E00F8CFF7CFF6CFF5CFF4CFF3CFF2CFF1CFC6
:10001E00F0CFEFCFEECFEDCFF894EE27ECBBF1E0C3
:10002E00FBBFEBBFE5BF8DE0A2E0BB27ED938A954A
:10003E00E9F780E094E0A0E6ED930197E9F7EFE5AC
:10004E00EDBFE4E0EEBFC0E6D1E000C000E010E09E
:10005E00E1E0E2BBE0E0E1BBE5BBE4BBE8BBEFE324
:10006E00E7BB809B03C0C69AC79A04C0809902C0A2
:10007E00C698C798C098C198C298C398C498C59896
:10008E00A4EFB1E003D0C09AECCFFFCF109639F0B9
:10009E0088EE93E00197F1F7A8951197C9F70895A7
:00000001FF
