:0600000012C0FECFFDCF8F
:10000600FCCFFBCFFACFF9CFF8CFF7CFF6CFF5CFAE
:10001600F4CFF3CFF2CFF1CFF0CFEFCFEECFEDCFDE
:10002600F894EE27ECBBF1E0FBBFEBBFE5BF8DE03C
:10003600A2E0BB27ED938A95E9F780E094E0A0E67D
:10004600ED930197E9F7EFE5EDBFE4E0EEBFC0E61B
:10005600D1E000C0E1E0E2BBE0E0E1BBE5BBE4BB30
:10006600E8BBEFE3E7BB809B18C0C09AC19AC29A6F
:1000760016D018D0C09AC29AC49A11D0C19AC39AFF
:10008600C59A0DD0C09AC19AC29A0CD0C098C2988F
:10009600C498C198C398C59802D0E5CFFFCFA4EF06
:1000A600B1E004C0C39AC49AC59AF9CF109639F044
:1000B60088EE93E00197F1F7A8951197C9F708958F
:00000001FF
