:0400000012C0FECF5D
:10000400FDCFFCCFFBCFFACFF9CFF8CFF7CFF6CFA8
:10001400F5CFF4CFF3CFF2CFF1CFF0CFEFCFEECFD8
:10002400EDCFF894EE27ECBBF1E0FBBFEBBFE5BFEF
:100034008DE0A2E0BB27ED938A95E9F780E094E098
:10004400A0E6ED930197E9F7EFE5EDBFE4E0EEBF3D
:10005400C0E6D1E000C000E010E0E1E0E2BBE0E097
:10006400E1BBE5BBE4BBE8BBEFE3E7BB989908C0A1
:100074000F5F1F4F0430E0E01E0714F000E010E0B3
:1000840044D0F801309751F4C09AC19AC29AC39AE5
:10009400C49AC59A41D039D03FD035C0E130A0E0F0
:1000A400FA0741F43CD041D046D04BD050D055D083
:1000B4005AD029C0E230A0E0FA0741F44ED047D02C
:1000C40040D039D032D02BD04ED01DC0E330A0E088
:1000D400FA07B1F4C09A47D0C19A45D0C29A43D026
:1000E400C098C39A40D0C198C49A3DD0C298C59ACA
:1000F4003AD0C39838D0C49836D0C59834D003C009
:10010400C09A0AD0C098B2CFFFCFC098C198C29805
:10011400C398C498C5980895A4EFB1E027C0C09AC5
:10012400A4E6B0E023D0C0980895C19AA4E6B0E054
:100134001DD0C1980895C29AA4E6B0E017D0C29821
:100144000895C39AA4E6B0E011D0C3980895C49A60
:10015400A4E6B0E00BD0C4980895C59AA4E6B0E034
:1001640005D0C5980895A4E6B0E000C0109639F013
:1001740088EE93E00197F1F7A8951197C9F70895D0
:00000001FF
