:0200000012C02C
:10000200FECFFDCFFCCFFBCFFACFF9CFF8CFF7CFA2
:10001200F6CFF5CFF4CFF3CFF2CFF1CFF0CFEFCFD2
:10002200EECFEDCFF894EE27ECBBF1E0FBBFEBBFD8
:10003200E5BF8DE0A2E0BB27ED938A95E9F780E06A
:1000420094E0A0E6ED930197E9F7EFE5EDBFE4E078
:10005200EEBFC0E6D1E000C000E010E0E1E0E2BBAC
:10006200E0E0E1BBE5BBE4BBE8BBEFE3E7BBC6987E
:1000720098990CC00F5F1F4F0430E0E01E0714F088
:1000820000E010E043D0ACEDB5E078D046D0F80106
:10009200309729F43BD048D040D046D035C0E1302B
:1000A200A0E0FA0741F443D048D04DD052D057D007
:1000B2005CD061D029C0E230A0E0FA0741F455D00B
:1000C2004ED047D040D039D032D055D01DC0E330C9
:1000D200A0E0FA07B1F4C09A4ED0C19A4CD0C29AAD
:1000E2004AD0C098C39A47D0C198C49A44D0C29803
:1000F200C59A41D0C3983FD0C4983DD0C5983BD053
:1001020003C0C09A11D0C098B2CFFFCFC09AC19A93
:10011200C29AC39AC49AC59A0895C098C198C298BF
:10012200C398C498C5980895A4EFB1E027C0C09AB7
:10013200A4E6B0E023D0C0980895C19AA4E6B0E046
:100142001DD0C1980895C29AA4E6B0E017D0C29813
:100152000895C39AA4E6B0E011D0C3980895C49A52
:10016200A4E6B0E00BD0C4980895C59AA4E6B0E026
:1001720005D0C5980895A4E6B0E000C0109639F005
:1001820088EE93E00197F1F7A8951197C9F70895C2
:00000001FF
