:0800000012C0FECFFDCFFCCFC2
:10000800FBCFFACFF9CFF8CFF7CFF6CFF5CFF4CFB4
:10001800F3CFF2CFF1CFF0CFEFCFEECFEDCFF89413
:10002800EE27ECBBF1E0FBBFEBBFE5BF8DE0A2E044
:10003800BB27ED938A95E9F780E094E0A0E6ED937D
:100048000197E9F7EFE5EDBFE4E0EEBFC0E6D1E0E8
:1000580000C000E010E0C0D0E1E0E2BBE0E0E1BBBE
:10006800E5BBE4BBE8BBEFE3E7BB809B09C003301B
:10007800E0E01E071CF000E010E002C00F5F1F4F19
:10008800002E012AC1F421E030E02E31E0E03E07E5
:1000980084F4042E052A11F4A2D006C0A4D0E417D3
:1000A800F50721F499D0C798A4E6A0D02F5F3F4F59
:1000B800ECCFC79A43C097D0E017F10721F4C79A4D
:1000C800A0E7B7E13DC0E2E0F0E0E017F107C9F4CE
:1000D80021E030E02F30E0E03E078CF4042E052AC2
:1000E80011F47DD006C07FD0E417F50729F474D049
:1000F800C798A4EFB1E09AD02F5F3F4FEBCFC79AD4
:100108001DC0E3E0F0E0E017F107D9F421E030E0AA
:100118002F30E0E03E078CF4042E052A11F45FD05E
:1001280006C061D0E417F50729F456D0C798A8EEA1
:10013800B3E07CD02F5F3F4FEBCFC798A8EBBBE075
:1001480075D056D0F801309751F4C09AC19AC29A26
:10015800C39AC49AC59A53D04BD051D03BC0E13012
:10016800A0E0FA0771F44ED0C0984FD0C19850D093
:10017800C29851D0C39852D0C49853D0C59854D07F
:1001880029C0E230A0E0FA0771F44BD0C59846D0F8
:10019800C49841D0C3983CD0C29837D0C19832D0C7
:1001A800C09842D017C0E330A0E0FA0781F42AD003
:1001B8002CD02ED0C0982FD0C19830D0C29831D032
:1001C800C39832D0C49830D0C5982ED003C0C09AF6
:1001D80016D0C0984ACFFFCF40E050E0089541E0E4
:1001E80050E0C79A0895E1E0F0E00895B0E01EC03D
:1001F800C098C198C298C398C498C5980895A4EFA8
:10020800B1E014C0C09AA4E6F1CFC19AA4E6EECF3B
:10021800C29AA4E6EBCFC39AA4E6E8CFC49AA4E6B0
:10022800E5CFC59AA4E6E2CFA4E6E0CF109639F070
:1002380088EE93E00197F1F7A8951197C9F708950B
:00000001FF
